:100000000C944E000C944E000C944E000C944E0038
:100010000C944E000C944E000C944E000C944E0028
:100020000C944E000C944E000C944E000C944E0018
:100030000C944E000C944E000C944E000C944E0008
:100040000C944E000C944E000C944E000C944E00F8
:100050000C944E000C944E000C944E000C944E00E8
:100060000C944E000C944E000C944E000C944E00D8
:100070000C944E000C944E000C944E000C944E00C8
:100080000C944E000C944E000C944E005D9BFECFE1
:100090008CB908955F9BFECF8CB1089580E18EBF2F
:1000A00080E08DBF80E887BB88BB8FEF82B984BBBF
:1000B00089E189B988E18AB98FEF83B988E60E941E
:1000C000460081E60E9446008CE60E9446008FE6CC
:0C00D0000E9446000E944A0083B9FCCF49
:00000001FF
