:100000000C944B000C944B000C944B000C944B0044
:100010000C944B000C944B000C944B000C944B0034
:100020000C944B000C944B000C944B000C944B0024
:100030000C944B000C944B000C944B000C944B0014
:100040000C944B000C944B000C9446000C944B0009
:100050000C944B000C944B000C944B000C944B00F4
:100060000C944B000C944B000C944B000C944B00E4
:100070000C944B000C944B000C944B000C944B00D4
:100080000C944B000C944B000C944B008F938CB150
:100090008CB98F911895789489E189BD88E98ABDDA
:0400A0000C9450006C
:00000001FF
