:100000000C9446000C9446000C9446000C94460058
:100010000C9446000C9446000C9446000C94460048
:100020000C9446000C9446000C9446000C94460038
:100030000C9446000C9446000C9446000C94460028
:100040000C9446000C9446000C9446000C94460018
:100050000C9446000C9446000C9446000C94460008
:100060000C9446000C9446000C9446000C944600F8
:100070000C9446000C9446000C9446000C944600E8
:100080000C9446000C9446000C94460080E887BB14
:1000900088BB80EF82B983B98FE084BB85BB0C94A9
:0800A0004F0061E080E070E018
:00000001FF
